:0300000002019268
:0C019200787FE4F6D8FD7581780201D971
:1000FF0041542B43495053454E440D0A00616263EE
:10010F003132330D0A004154490D0A0041542B433B
:10011F004F50533F0D0A0043484E2D554E49434F04
:10012F004D0041542B434950434C4F53450D0A004A
:10013F0041542B43495052584745543D300D0A0006
:10014F0041542B434C504F52543D22544350222C78
:10015F002232303232220D0A0041542B4349505380
:10016F00544152543D22544350222C223132302ECE
:10017F0032372E39362E3738222C2238383838225B
:03018F000D0A0056
:100320001E2B000000000000000000000000000084
:1003300000000000000000000000000000000000BD
:100340001E09000000000000000000000000000086
:10035000000000000000000000000000000000009D
:100360001E4D000000000000000000000000000022
:10037000000000000000000000000000000000007D
:10038000016B00014B00014900014C00014A0001D2
:080390002700012A000108000A
:10046E00758922758DFD758BFD758C06758A06D284
:10047E008ED28CC29FD29ED29CD2A9D2AFD2AC22A7
:080003008F993099FDC299228A
:10048E0012043F6010F5993099FDC299740129F953
:06049E00E43AFA80EB22B3
:0903FC007BFF12048E7F017E00DC
:040405008E6D8F6EFB
:10040900E4F56FF570C3E570956EE56F956D502550
:10041900E4F583F582AF82AE83E4FCFD7BFF7AFFCE
:10042900F9F8D31204584003A380EA0570E5707007
:05043900D4056F80D026
:01043E00229B
:03000B0002039954
:10039900C0E0C083C082C0D075D0000529E52970AE
:1003A90002052864A07004E528640F703DF528F55E
:1003B90029E54A640170330508E508B401087BFFA3
:1003C9007A0079FF800BE508B4040B7BFF7A017989
:1003D9000C12048E8014E508B405077F1A12000375
:1003E9008008E508B40803750800D0D0D082D0830E
:0303F900D0E0321F
:03002300020026B2
:0D002600C0E0C0D075D000C000C006C0070B
:100033002098030200F4C298E599B45B03754C0160
:10004300E5497051742B256BF8A699056BE56BC3D5
:10005300940240387429256BF8E6640D702E742AD7
:10006300256BF8E6640A7024FFEFC3956B50157493
:100073002B2FF8E6FE74092FF8A606742B2FF876BB
:10008300000F80E5756B00754B018065E56BC394CC
:100093001E405E8059E54C64017056742B256BF845
:1000A300A699056BE56BC39402403C7429256BF854
:1000B300E66423600A742A256BF8E6642370287FBC
:1000C30000EFC3956B5015742B2FF8E6FE744D2F7C
:1000D300F8A606742B2FF876000F80E5756B007574
:1000E3004C00752701800AE56BC3941E4003756BB2
:0100F300000C
:0B00F400D007D006D000D0D0D0E03202
:1002A000E4F56C12046EF54BE54B70097A01791593
:1002B0001203FC80F3E4F54B7BFF7A01791B1204F7
:1002C0008E7F027E00120405E54B60FC7570FF75A1
:1002D00071017572267B007A00790912021EEA49C3
:1002E0004B60D57A0179311203FC7BFF7A01793FAB
:1002F0001203FE7BFF7A01794F1203FE7BFF7A0126
:1003000079681203FE754901754A01E527B401FBBE
:10031000E4F527F5907F01FE1204057590FF80EB50
:10019E000202A0E493A3F8E493A34003F68001F2D5
:1001AE0008DFF48029E493A3F85407240CC8C33362
:1001BE00C4540F4420C8834004F456800146F6DF31
:1001CE00E4800B0102040810204080900320E47E9E
:1001DE00019360BCA3FF543F30E509541FFEE49326
:1001EE00A360010ECF54C025E060A840B8E493A3ED
:1001FE00FAE493A3F8E493A3C8C582C8CAC583CA18
:10020E00F0A3C8C582C8CAC583CADFE9DEE780BECF
:010398000064
:10043F00BB010689828A83E0225002E722BBFE02BB
:09044F00E32289828A83E49322EE
:10045800EB9FF5F0EA9E42F0E99D42F0EC6480C81B
:0604680064809845F022BB
:10021E008B6D8A6E896FAB70AA71A97212043F60E2
:10022E0063AB6DAA6EA96F12043F605F8570738514
:10023E0071748572758B768A778978AB73AA74A977
:10024E007512043FFF6023AB76AA77A97812043F9C
:10025E006F7017042575F575E43574F57474012502
:10026E0078F578E43577F57780D1AB73AA74A975F4
:10027E0012043F7002800D7401256FF56FE4356E28
:10028E00F56E809DAB6DAA6EA96F227B007A007908
:02029E0000223C
:00000001FF
